:020000040000fa
:080000000002040000000000f2
:020000040000fa
:04000800f6050000f9
:020000040000fa
:04000c0036050000b5
:020000040000fa
:04001000780500006f
:020000040000fa
:04001400560500008d
:020000040000fa
:040018009805000047
:020000040000fa
:04001c00f6050000e5
:020000040000fa
:04002000f6050000e1
:020000040000fa
:04002400f6050000dd
:020000040000fa
:04002800f6050000d9
:020000040000fa
:04002c00f6050000d5
:020000040000fa
:04003000f6050000d1
:020000040000fa
:04003400d0020000f6
:020000040000fa
:04003800f6050000c9
:020000040000fa
:04003c00f6050000c5
:020000040000fa
:04004000f6050000c1
:020000040000fa
:04004400f6050000bd
:020000040000fa
:04004800b8050000f7
:020000040000fa
:04004c00f6050000b5
:020000040000fa
:04005000f6050000b1
:020000040000fa
:04005400f6050000ad
:020000040000fa
:04005800f6050000a9
:020000040000fa
:04005c00f6050000a5
:020000040000fa
:04006000f6050000a1
:020000040000fa
:04006400f60500009d
:020000040000fa
:04006800f605000099
:020000040000fa
:04006c00f605000095
:020000040000fa
:04007000f605000091
:020000040000fa
:04007400f60500008d
:020000040000fa
:04007800f605000089
:020000040000fa
:04007c00f605000085
:020000040000fa
:04008000f605000081
:020000040000fa
:04008400f60500007d
:020000040000fa
:04008800f605000079
:020000040000fa
:04008c00f605000075
:020000040000fa
:04009000f605000071
:020000040000fa
:04009400f60500006d
:020000040000fa
:04009800f605000069
:020000040000fa
:04009c00f605000065
:020000040000fa
:0400a000f605000061
:020000040000fa
:0400a400f60500005d
:020000040000fa
:0400a800f605000059
:020000040000fa
:0400ac00f605000055
:020000040000fa
:0400b000f605000051
:020000040000fa
:0400b400f60500004d
:020000040000fa
:0400b800f605000049
:020000040000fa
:0400bc00f605000045
:020000040000fa
:0400c000f605000041
:020000040000fa
:0400c400f60500003d
:020000040000fa
:0400c800f605000039
:020000040000fa
:0400cc00f605000035
:020000040000fa
:0400d000f605000031
:020000040000fa
:0400d400f60500002d
:020000040000fa
:0400d800f605000029
:020000040000fa
:0400dc00f605000025
:020000040000fa
:0400e000f605000021
:020000040000fa
:0400e400f60500001d
:020000040000fa
:0400e800f605000019
:020000040000fa
:0400ec00f605000015
:020000040000fa
:0400f000f605000011
:020000040000fa
:0400f400f60500000d
:020000040000fa
:0400f800f605000009
:020000040000fa
:0400fc00f605000005
:020000040000fa
:04010000f605000000
:020000040000fa
:04010400f6050000fc
:020000040000fa
:04010800f6050000f8
:020000040000fa
:04010c00f6050000f4
:020000040000fa
:04011000f6050000f0
:020000040000fa
:04011400f6050000ec
:020000040000fa
:04011800f6050000e8
:020000040000fa
:04011c00f6050000e4
:020000040000fa
:04012000f6050000e0
:020000040000fa
:04012400f6050000dc
:020000040000fa
:04012800f6050000d8
:020000040000fa
:04012c00f6050000d4
:020000040000fa
:04013000f6050000d0
:020000040000fa
:04013400f6050000cc
:020000040000fa
:04013800f6050000c8
:020000040000fa
:04013c00f6050000c4
:020000040000fa
:04014000f6050000c0
:020000040000fa
:04014400f6050000bc
:020000040000fa
:04014800f6050000b8
:020000040000fa
:04020800f6050000f7
:020000040000fa
:04020c0036050000b3
:020000040000fa
:04021000780500006d
:020000040000fa
:04021400560500008b
:020000040000fa
:040218009805000045
:020000040000fa
:04021c00f6050000e3
:020000040000fa
:04022000f6050000df
:020000040000fa
:04022400f6050000db
:020000040000fa
:04022800f6050000d7
:020000040000fa
:04022c00f6050000d3
:020000040000fa
:04023000f6050000cf
:020000040000fa
:04023400d0020000f4
:020000040000fa
:04023800f6050000c7
:020000040000fa
:04023c00f6050000c3
:020000040000fa
:04024000f6050000bf
:020000040000fa
:04024400f6050000bb
:020000040000fa
:04024800b8050000f5
:020000040000fa
:04024c00f6050000b3
:020000040000fa
:04025000f6050000af
:020000040000fa
:04025400f6050000ab
:020000040000fa
:04025800f6050000a7
:020000040000fa
:04025c00f6050000a3
:020000040000fa
:04026000f60500009f
:020000040000fa
:04026400f60500009b
:020000040000fa
:04026800f605000097
:020000040000fa
:04026c00f605000093
:020000040000fa
:04027000f60500008f
:020000040000fa
:04027400f60500008b
:020000040000fa
:04027800f605000087
:020000040000fa
:04027c00f605000083
:020000040000fa
:04028000f60500007f
:020000040000fa
:04028400f60500007b
:020000040000fa
:04028800f605000077
:020000040000fa
:04028c00f605000073
:020000040000fa
:04029000f60500006f
:020000040000fa
:04029400f60500006b
:020000040000fa
:04029800f605000067
:020000040000fa
:04029c00f605000063
:020000040000fa
:0402a000f60500005f
:020000040000fa
:0402a400f60500005b
:020000040000fa
:0402a800f605000057
:020000040000fa
:0402ac00f605000053
:020000040000fa
:0402b000f60500004f
:020000040000fa
:0402b400f60500004b
:020000040000fa
:0402b800f605000047
:020000040000fa
:0402bc00f605000043
:020000040000fa
:0402c000f60500003f
:020000040000fa
:0402c400f60500003b
:020000040000fa
:0402c800f605000037
:020000040000fa
:0402cc00f605000033
:020000040000fa
:0402d000f60500002f
:020000040000fa
:0402d400f60500002b
:020000040000fa
:0402d800f605000027
:020000040000fa
:0402dc00f605000023
:020000040000fa
:0402e000f60500001f
:020000040000fa
:0402e400f60500001b
:020000040000fa
:0402e800f605000017
:020000040000fa
:0402ec00f605000013
:020000040000fa
:0402f000f60500000f
:020000040000fa
:0402f400f60500000b
:020000040000fa
:0402f800f605000007
:020000040000fa
:0402fc00f605000003
:020000040000fa
:04030000f6050000fe
:020000040000fa
:04030400f6050000fa
:020000040000fa
:04030800f6050000f6
:020000040000fa
:04030c00f6050000f2
:020000040000fa
:04031000f6050000ee
:020000040000fa
:04031400f6050000ea
:020000040000fa
:04031800f6050000e6
:020000040000fa
:04031c00f6050000e2
:020000040000fa
:04032000f6050000de
:020000040000fa
:04032400f6050000da
:020000040000fa
:04032800f6050000d6
:020000040000fa
:04032c00f6050000d2
:020000040000fa
:04033000f6050000ce
:020000040000fa
:04033400f6050000ca
:020000040000fa
:04033800f6050000c6
:020000040000fa
:04033c00f6050000c2
:020000040000fa
:04034000f6050000be
:020000040000fa
:04034400f6050000ba
:020000040000fa
:04034800f6050000b6
:020000040000fa
:100400000f8920000e7f22000e01880000000000ee
:10041000000020000000e000020032000001200087
:1004200020028800140007000d0207000000e00011
:1004300003003a00a029210001002000020037003b
:100440000000200001002000810f70000100320038
:1004500014000700000020000000e000020032004d
:100460000000020000000000d213020000000000a3
:100470000040da000000fe004440a9000000200017
:100480000000e0000300320000002000a00188000e
:100490004440a800000006008a1f78008b1f7800e7
:1004a0000000060091018800800478000000eb0045
:1004b0001a003700e284440032a0b4009905ba0063
:1004c000e284440032a0b4009906ba00e2844400f9
:1004d00032a0b4000006eb00476fde00fd07b2005b
:1004e000636ce10003003a00ebff07000000eb0043
:1004f0000a003700606ce10004003a00005deb0088
:100500008b05e900fdff3e00040037006168e10053
:10051000010032000086eb000b00070019c7ba008b
:100520001905ba000e04e00003003a000a00e000da
:10053000e0ff3a0000000600fe07b2009e018800be
:100540008a047800f5ff3700395dba008b05e900b1
:100550000c003200295dba008b05e900080032006a
:100560000c00e00003003a00e284440032a0b40032
:10057000f5ff370019ddba008b05e900faff3a00f4
:100580008904e800e184440032a0b40000000600c1
:10059000000000000000000000000000000000005b
:1005a0003600f800809fbe00829fbe00849fbe0080
:1005b000869fbe00889fbe000000fa0000188000e1
:1005c0008000eb00cc010700f2c8230023d72300f2
:1005d000ad0307004040880051408800101880009b
:1005e0008000eb00c4010700d220230083d4230045
:1005f000a50307000001be0000002000811c2400ac
:10060000d401070020408800314088002018800075
:100610008000eb00b8010700f2c8230023d72300b5
:1006200099030700604088007140880060408000a6
:1006300071408000d2cc2c00c3e423009203070059
:10064000f04188000142880010448000214480006d
:10065000f043880001448800b0438000c14380001b
:10066000d0438800e143880090438000a14380008c
:10067000b0438800c1438800f441800005428000f7
:1006800020408000314080000001be000400be0018
:10069000b001070090438800a143880074418000a6
:1006a0008541800090418000a14180000001be0092
:1006b0000400be00b00107000002be00b04180008f
:1006c000c14180000001be000400be00aa01070075
:1006d0000002be0090438000a14380000001be00e4
:1006e0000400be00680307000004be00b0418000a3
:1006f000c14180000001be009f0107000002be0052
:1007000070418000814180000001be000400be00f5
:10071000990107000002be00b0438000c143800081
:100720000001be000400be00570307000001be0028
:100730000800be00870107000004be00d44380000b
:10074000e5438000b0418000c14180000001be004f
:100750000400be004c0307000001be000800be00fc
:10076000850107000002be00f043800001448000c4
:100770000001be000400be007f0107001044880095
:1007800021448800144480002544800010428000e9
:100790002142800018c0b3000001be000400be006a
:1007a000320107000000e00001003d000044eb00c2
:1007b0000804e00005003200104280002142800061
:1007c000104488002144880016003700144480003b
:1007d00025448000a0408000b140800018c0b300d4
:1007e0000001be000400be001e0107000000e00082
:1007f000010034000044eb000804e0000500320072
:10080000a0408000b140800010448800214488004e
:100810000400370010448000214480001044880008
:100820002144880010448000214480001101070009
:1008300000007800000c8800f44080000541800032
:1008400040408000514080000001be000400be0016
:1008500049010700f04088000141880010418000f4
:10086000214180000200200003f82300420107001c
:100870001041880021418800c04080000000e8004d
:10088000c04088001828ef00c0408000f40f5000de
:1008900060003a00f4408000054180001041800073
:1008a000214180000001be000400be0017020700c5
:1008b00040408800514088006000b8001041880026
:1008c000214188006000b800f040880001418800a4
:1008d0001828ef004440800055408000d04180003f
:1008e000e141800018c0b3000001be000400be005a
:1008f000dc0007000000e000010035000044eb00d0
:100900000804e00008003200d0408000e140800090
:10091000f226210033a8230017010700d0408800e9
:10092000e1408800190037004440800055408000b5
:10093000d0418000e141800018c0b3000001be003a
:100940000400be00c90007000000e00001003c00f8
:100950000044eb000804e00008003200d0408000b2
:10096000e1408000f226210033a82300f9000700af
:10097000d0408800e140880004003700d04080006b
:10098000e1408000d0408800e1408800d0408000f5
:10099000e140800018c0b3000200200003fa2300e9
:1009a000b20007000000e00001003d000044eb0041
:1009b0000804e000050032000000200001fa2300d6
:1009c000d0408800e140880012003700d04080000d
:1009d000e140800018c0b3006011b800a10007001a
:1009e0000000e000010034000044eb000804e000d7
:1009f000040032006000b800d0408800e140880068
:100a000004003700d0408000e1408000d0408800e2
:100a1000e1408800504280000000e0000200320007
:100a20005042800000000100b08820001040780093
:100a30008040e800b088200001487800a0882000ad
:100a400011c0b300014878008460a9000080fa005a
:100a50004f04be004f03be004f02be004f01be0058
:100a60004f00be003600f900004006003600f800d6
:100a7000809fbe00829fbe00849fbe00869fbe00f6
:100a80000000fa008020a9000000eb0039070700f1
:100a90000080fa004f03be004f02be004f01be00af
:100aa0004f00be003600f900004006003600f80096
:100ab000809fbe00829fbe00849fbe00869fbe00b6
:100ac0000000fa00300707008040a9001000200055
:100ad000280707000080fa004f03be004f02be0047
:100ae0004f01be004f00be003600f9000040060076
:100af0003600f800809fbe00829fbe00849fbe002b
:100b0000869fbe000000fa008060a900200020003f
:100b1000180707000080fa004f03be004f02be0016
:100b20004f01be004f00be003600f9000040060035
:100b30003600f800809fbe00829fbe00849fbe00ea
:100b4000869fbe000000fa008080a90030002000cf
:100b5000080707000080fa004f03be004f02be00e6
:100b60004f01be004f00be003600f90000400600f5
:100b70003600f800809fbe00829fbe00849fbe00aa
:100b8000869fbe000000fa0000002000010b240038
:100b9000f041880001428800704280000000e000bf
:100ba000020032007042800000000100f088200046
:100bb000104078008040e800f0882000014878006c
:100bc000e088200011c0b300014878008500a9002a
:100bd0000080fa004f03be004f02be004f01be006e
:100be0004f00be003600f900004006000040da0069
:100bf0000000fe000800fa008e81e80080097800fd
:100c00006400470001087800660047000208780089
:100c100066004700100f78000a00370064004700a4
:100c20001000780010407800e40047009100780040
:100c30000101e800e4004700820878002b04070067
:100c40001e0fe9001e0078000000e000f3ff3a00ec
:100c500066004700100078000080fa0000000600df
:100c600000000500140020008f033700f4ff2f0060
:100c70008d0337000001be00210007000470a700ab
:100c800003f0a1006509b100160032000d00350027
:100c90006828e10006003500f0ff2f00f1ff270073
:100ca0000300e00013003b000100280000000500e5
:100cb00000004000818048008502e900fcff3a0006
:100cc00008003700f88f420002003c008000eb0073
:100cd000000005008100d1000080d3008502e800fb
:100ce000fcff3a000300e00002003b00600010003f
:100cf000e0801800000006006011b800850337008e
:100d0000c70ade00f107b200f50fb200080032009a
:100d1000e1cf4200020032000170a0002400050073
:100d2000810f700001003200040805004400050036
:100d3000810f700002003a00140005008502e900ee
:100d40000000400081c04800fcff3b000170a00093
:100d50002400050007f82700078361000638e1003a
:100d600004003a00f70720008783610087037100c1
:100d700001003a0003f0a200889fbe008a9fbe00d7
:100d80008c9fbe00470ade000480a100c71ade0067
:100d90000580a100070028000785600087856100a5
:100da000f70f20000720e1009e0032000728e10035
:100db0009c003200010678000400e000b40032001c
:100dc000f7072000878060000170a0000500e000a8
:100dd000c0003200f7072000878161000370a00087
:100de000050652000f003a000b50e1000b003200e4
:100df0000308e10002003a000200e1007e00320038
:100e00000204500083845800040031000001fd00fa
:100e10008101fd008402fd008a05fd006044b800e8
:100e2000210037000520e10005003d000001fd0024
:100e30008101fd008402fd008a05fd0005065200c7
:100e40007a60e100050035000170a1004722dd0055
:100e5000848070008a807000630037006044b800ae
:100e6000ef02660007ff2f00070666000500e0009e
:100e700006003400f08312008714dd000511de0047
:100e8000071bdd00060171008519de007060e100be
:100e90000500350009047800820478000301780019
:100ea0008001eb00700656000b50e10003003a0091
:100eb00002004000838048000400370060041400f2
:100ec000e0841c0002005800838058000188a300c1
:100ed000060032008100d1000080d3008984d30055
:100ee0000884d3000402e800270037000178a3003b
:100ef00025003a000100e000030032008186cf00a7
:100f0000698656000a0037008c0020000000e000cf
:100f100004003a0009007800880478000004eb001f
:100f2000700252008086cf000d0646000c06e900d4
:100f30007060e1000600350080007800090078004c
:100f4000880478000004eb0070065600700252001e
:100f50000c00e0000c0034008c08dd00f0031600eb
:100f60000703de00868070000c00dd00074bde000a
:100f7000060070008c4cdd000743de0086847400a0
:100f80000c44dd000c0252006120e100200035001d
:100f9000610160000700280087816400f7ff2700d7
:100fa00087836400070374000300e000060032003a
:100fb00082037300040032000000e800e080480073
:100fc0000188a3000e003a00f70f20000720e1007f
:100fd0004a003d000170a1004722dd00810072003f
:100fe0008a8070000000be004f06be004f05be00a4
:100ff0004f04be00000006006000b800faff370092
:101000008100d1000080d3000402e800eeff370029
:101010000401780089017400a10107008a80700032
:10102000f1ff3700f7010700070278000001fd001b
:101030008101fd00f301070087027800850372003b
:101040000778a300040032000001fd008101fd00cb
:1010500006020700e4ff3700850362000768a3006b
:10106000080032000b50e10003003200f0ff2f00b7
:10107000f1ff2700dcff37000001fd008101fd00ca
:10108000d9ff37000468a300d7ff3200faff37000a
:10109000f8ff2700888360000b003a000000e000a2
:1010a00009003a0083036400828373000200320067
:1010b0000200be00ccff37000b50e100ceff3a002b
:1010c0000200be00c8ff3700140020008100640049
:1010d0003eff3700f8ff27008883610004003a00d4
:1010e0000200e00002003a008c007800beff3700ea
:1010f000150020008301640039ff370001f8270044
:101100000000200081007500b7ff3700889fbe00f7
:101110008a9fbe008c9fbe001b0020000202be0002
:101120000586680006002800060666004709de00fe
:10113000f20fb200820032000243e8008000320069
:10114000c729de00f30fb2007d0032000343e80040
:101150007b003200f107b2000170a000f507b20079
:101160000570a000c708dd004903de00868070001e
:101170004700dd00c72add004923de0086827200b9
:101180004722dd0003055100040350008583580009
:101190000300310000004000818048000a05e9009a
:1011a0008c1f78008a9fbe00040050008580580084
:1011b0000402420085824a0000004000818048000d
:1011c0000005eb000004be006033b8000406be005a
:1011d0000d48e10056003100110009004dccd80047
:1011e0000c01b8000d02b8008481410060824a0001
:1011f0008283530003045c0084845c0060055d000e
:101200000a00e00025003a00800578000d40e1006a
:1012100049003100880078000700780011000900bb
:101220004d88d8000c01b8000d02b800848141003f
:1012300060824a006003110083835b0004045c0049
:10124000e0845c000900e00021003a004f01be008c
:101250000300e0002b003200e3016000070673008a
:101260008c81710001003200640070004200de00d9
:101270004e5edd000c007000c258de0001e0a000f0
:1012800083010700cf017800818071004f06be0006
:101290004f05be004f04be00000006008c834300d3
:1012a0000d044c00e0844c0060054d000000e90096
:1012b0000a00e000d4ff32008c8343000d044c0090
:1012c000e0844c0060054d000000e900ceff3700cf
:1012d0000c0343008d834b0060044c00e0844c0001
:1012e0000000e9000900e000d8ff32000c034300d1
:1012f0008d834b0060044c00e0844c000000e9004a
:10130000d2ff37004200de004e5edd000c007000b0
:10131000c258de0001e0a000cf0178000300e00029
:10132000daff320060001000e0801800d7ff3700bd
:10133000f0ff2f00aaff3700f0ff2f00b9ff3700a2
:101340000404be002f010700870678000004fd009a
:101350008104fd002b010700078366000678a300c7
:10136000030032000960a7000800be002c0037000f
:101370000d78a300020032000800be0028003700ec
:101380000778a30026003a0001f0a10009f0a100af
:101390000668a30003003200f1ff2700f0ff2f00d2
:1013a000baff37000d68a300030032000800be003a
:1013b0008c807000b5ff37000768a30007003a0073
:1013c0000648a30003003200f1ff2700f0ff2f00c2
:1013d000aeff37000d48a300030032006000b800e4
:1013e0008c807000a9ff37000748a300040032007a
:1013f00001f82700000020008c807000a3ff370058
:10140000760107000004fd008104fd00020578005c
:10141000720107000802be008a01780059ff3700f8
:101420000160a000120220008242880097ff37006e
:101430000100e000120032000500e0001000320060
:10144000889fbe008a9fbe008c9fbe000006eb00f6
:1014500001f8a3000300320060001000e0801800d3
:101460000cf0a00005f8a300030032006002120097
:10147000e0821a000cf0a2008005eb0041ff37006b
:101480006000b80002000500038368000700280020
:1014900007036300470ade000480a100c71ade00cc
:1014a0000580a100f70f20000720e1004200320074
:1014b0000728e10040003200889fbe008a9fbe00de
:1014c0008c1f7800f107b200f307b2000400e000bf
:1014d000640032000170a0000500e00068003200e6
:1014e0000370a00085054200eb07b1000204b800bc
:1014f0000302b8008484440060854a00020ab800f0
:10150000848444000a854a00030ab80004054500a3
:10151000040033000804d0008984d2000a85d20078
:101520008b05e9006158e1003d0035000210200004
:10153000090161000308200089816100f70720008c
:101540008783640008867300c84cde00c853dd0042
:10155000878474004855de000300e0000600320076
:1015600082037600040032008904e80060054d0023
:101570000a88a3000c003a00f70f20000758e1008a
:1015800044003d000a70a100c75ddd000a857500ba
:101590008a007300090078004f0678004f05be00ee
:1015a0004f04be00000006000a05d1008984d30064
:1015b0008b05e800f0ff3700881f780006047800ec
:1015c00090000700070278000001fd008101fd0086
:1015d0008c00070087027800850372000778a3005b
:1015e000050032000001fd008101fd009f000700a1
:1015f0004f04780000000600850372000748a3002e
:1016000003003200f0ff2f00f1ff2700f8ff370042
:101610000000200001f8270088807000f4ff3700e8
:10162000880178004848dd00808171004848de006c
:10163000c850dd0001007000c850de0006047800cc
:101640000b0178001600070088807000d2ff370079
:101650000500e00005003200170020003a000700f6
:101660009dff370081037000f9ff3a008600780083
:101670004f0678004f05be004f04be000000050075
:1016800083037100f9ff3200270020002e000700bd
:1016900094ff370001f8270086807000f4ff3700c0
:1016a0000100e00026003200610111007810e10025
:1016b00023003c006022b8007010e10004003500f7
:1016c00080027800010078008000eb00700151007a
:1016d0000200e0000900340070031100062add005a
:1016e000822ade008603dd00878272000200de00af
:1016f000860bdd00070070008208de008481710027
:10170000f4ff270004826200848171000400280035
:10171000848262006102600005f0a60000000600fd
:1017200004827100070032000000e800e0804800f9
:10173000000006000002be006000b800efff3700a6
:101740006000b80000000600889fbe000004eb00a7
:101750006138e10016003a000100e00008003a009c
:10176000c800de004800dd00880020000100e00025
:1017700003003a00c800de004800dd0068044400b1
:101780008184cf00e9845400060034008908dd001c
:10179000f08314008703de00878070000900dd00fd
:1017a00009044400610214004f04be00000006005a
:1017b0000300e00008003a00c811de004811dd0017
:1017c000880020000300e00003003a00c811de009a
:1017d0004811dd00680444008384cf00e98454008c
:1017e000060034008919dd00f08314008713de0041
:1017f000878171000911dd0009044400e102140031
:10180000e9ff37002700200001f0a70017002000a3
:10181000470bde00f60fb200040032000643e8007a
:101820000a0032004702b3000000060001037800fe
:10183000f607b2000603700002003a000703b30087
:10184000000006008702b3000000060001037800d4
:10185000f607b20006037000020032000770a00015
:10186000000006000760a000000006000478a30046
:10187000040032000578a300030032000168a300d1
:1018800001003a000200be000160a0000000060056
:1018900081017000270032008002eb0001f8a300f4
:1018a0000300320060001000e080180015002000e6
:1018b000f40720000202420020003400f703200059
:1018c0008703600006042000000363000208200074
:1018d000000161004700de00c909dd0000807100e1
:1018e000c708de000600e000080032008703710030
:1018f000060032001000b0000180b0000188a30093
:1019000002003200c108de000402e800f107b20064
:10191000f30f20000320e10003003d004722dd001b
:10192000810072002900370001f827000000eb0059
:10193000260037006000b8000000060068021200b0
:101940007f20e100020034006000b8001f00370073
:101950006011b8007020e1000400350080017800bb
:10196000010078008000eb00700252000400e000eb
:1019700009003400f00312000719dd008419de00ad
:101980000703dd00868171000400de00070bdd0027
:10199000060070008408de00f7ff270083836300e1
:1019a000870371000600280003036300070032006c
:1019b0000700e00003003a0061016000028173004b
:1019c000020032001000b0000180b0000500a60047
:1019d0000000060001f0a000000006004f0ade0033
:1019e0004709de00f107b200f20fb2000b0032002f
:1019f000f207b1000170a000c708dd00c901de00d8
:101a0000838070004700dd000400a600000006008f
:101a100060001000e080180000000600810f7000d8
:101a200001003a00000006008182cf000500e000be
:101a300010003e008082cf00ee8242007028e1005c
:101a40000400390007003e00800078000000eb0031
:101a50000e003700708312008600de000500dd00f6
:101a60000a003700708352008600dd000000eb00a2
:101a700006003700e28252008508dd007083120004
:101a80000603de00868070000500dd007507b000eb
:101a90000501ea000400a600000006006000100036
:101aa000e080180000000600889fbe008a9fbe00ec
:101ab000841f78006c0007004f007800110033008d
:101ac000f0ff2f00838f6c0006003b0004056500cb
:101ad0000a00a7000800370009f0a6001000200047
:101ae00008003700820f5400838f5c000300390028
:101af0001000200001003e000000200009f0a700b7
:101b00000000ea004f05be004f04be000000e000e8
:101b100000000600889fbe008a9fbe000082700001
:101b20000402710004827100260032000004be002d
:101b30000200be006011b8006b0920009502200071
:101b40000182cf000a0039000541b1000082cf00b8
:101b5000070039000541b1000982cf0004003900b7
:101b60000541b1000882cf00010039000541b100f4
:101b700005425200120032000a003b0082817100cf
:101b8000610164008100d1000080d3008984d3000a
:101b90000884d3008b05e8000442e800f7ff3a0010
:101ba000070037000804440089844c000000480006
:101bb000818048008b05e9000442e900f9ff3a0002
:101bc000030007004f05be004f04be0000000600e2
:101bd00081002000618055000b003d000b002000bb
:101be00061fe2f000100e1001d00340082817100c0
:101bf000610164008904d1000884d3000000e8007a
:101c0000faff3a00710020006100640003007000d8
:101c1000020060000900320061044400e0844c00ce
:101c20000988a500050032008b05e8006808e1007e
:101c300002003a008904d1000884d300f20f20008a
:101c40000258e10005003d00c75ddd00f907b20064
:101c50008980750008007800000006000bf8270056
:101c60008b007800000005000004be0024fc070083
:101c70000003be000405be000200be0020fc0700f9
:081c8000844f7500000006000e
:020000040000fa
:101c88000000fa0080002000001188002222ef00e6
:101c9800200220004011880021e2a8002342a80069
:101ca8000080fa00000006000000fa0000000000b2
:101cb80010118000610060000000e000fcff3200ad
:101cc80010118000620060000000e0000100320096
:101cd8002222a90030118000004078000080fa001c
:101ce800000006000200fa00004f78000000000023
:101cf8001111800000202000008060000000e0003a
:101d0800fbff3a001e80fb00201188000080fa00cb
:101d1800000006000000fa00101180000040780062
:101d2800614060000080fb0000f0a7000000ea00ae
:101d38000000ea004f00de00004078000080fa0052
:101d4800000006000000fa001111800000102000b9
:101d5800008060000000e0000700320011118000e0
:101d680000402000008060000000e0000200320017
:101d780010002000010037000000eb000040780050
:101d88000080fa00000006000000fa001011800030
:101d98004800de00614060000080fb0000f0a70002
:101da8000000ea000000ea004f00de000040780072
:101db8000080fa00000006000000fa001011800000
:101dc8000080fa00000006000000fa00d1ff0700ba
:101dd8000080fa00000006000000fa00d9ff0700a2
:101de8000080fa00000006000000fa00c9ff0700a2
:101df8000080fa00000006000000fa00e2ff070079
:101e08000080fa00000006000000fa00400e2800da
:101e180000198800c04020001019880000f029002f
:101e2800201988002823ef007000200080198800fe
:101e3800101980004200de006f40600048e8b700db
:101e48000080fa00000006000000fa002023a80025
:101e58000080fa00000006000000fa002023a90014
:101e68000080fa00000006000600fa00e4004700bf
:101e780080087800013020000e80e8000108780012
:101e88000000eb00000f78000f0037001e007800fc
:101e980000004000e4004700910078000080400006
:101ea8008e80e800910078009100780001087800a1
:101eb8000e80e800100078008080e8000e80e800be
:101ec800010878001e0fe80048c8bf000080fb002a
:101ed8009e0f5000edff3d001e0078000080fa00c4
:101ee800000006000000fa00001880000080fa00d8
:101ef800000006000000fa00001980000040780089
:101f0800614060000080fb0000f0a7000000ea00cc
:101f18000000ea004f00de00004078000080fa0070
:101f2800000006000200fa00000f78009e0078000a
:101f3800411988000080fa00000006000200fa003b
:101f4800000f78001e007800f6ff0700beff0700ac
:101f5800c1ff070000000000e6ff07000004a20020
:101f68000004e000fcff3a00deff07000080fa00f2
:101f7800000006000000fa0085a0a9000080fa0011
:101f8800000006000000fa000021ef003083200066
:101f980010088800000028002008880050428000af
:101fa8000000e00002003a00e001210024000700e0
:101fb8008460a9009460a800a08820008040eb00fd
:101fc800014878000080fa00000006000200fa00cc
:101fd800000f78009e00780011088800a088200073
:101fe8008040eb00014878000080fa0000000600fd
:101ff8000000fa00100880000080fa0000000600c7
:102008000200fa00000f78009e007800010888009e
:10201800a08820008040eb00014878000080fa008a
:10202800000006000000fa00000880000080fa00a6
:10203800000006000000fa000080fa000000060018
:102048000200fa00000f78009460a9009e00780052
:10205800514288009460a8000080fa000000060041
:102068000000fa00a08820008040eb0001487800ba
:102078009460a80005e1a8000080fa0000000600ae
:102088000000fa0005e1a9009460a9000080fa00a8
:10209800000006000200fa00a0882000104f780017
:1020a8001e4078000004e00003003200a0882000f1
:1020b8008040eb00014878001e4078000080fa005c
:1020c800000006000000fa00b088200010407800e8
:1020d8000080fb000080fa00000006000000fa0003
:1020e800b08820008040eb00014878000080fa00aa
:1020f800000006000000fa000a21ef0070562300d5
:10210800700888000003280090088800704280004a
:102118000000e00002003a00600d210024000700e2
:102128008500a9009500a900e08820008040eb0008
:10213800014878000080fa00000006000200fa005a
:10214800000f78009e00780071088800e088200061
:102158008040eb00014878000080fa00000006008b
:102168000000fa00700880000080fa0000000600f5
:102178000200fa00000f78009e00780051088800dd
:10218800e08820008040eb00014878000080fa00d9
:10219800000006000000fa00500880000080fa00e5
:1021a800000006000000fa000080fa0000000600a7
:1021b8000200fa00000f78009500a9009e00780040
:1021c800714288009500a8000080fa00000006000f
:1021d8000000fa00e08820008040eb000148780009
:1021e8009500a80013e1a8000080fa00000006008e
:1021f8000000fa0013e1a9009500a9000080fa0088
:10220800000006000200fa00e0882000104f780065
:102218001e4078000004e00003003200e08820003f
:102228008040eb00014878001e4078000080fa00ea
:10223800000006000000fa00f08820001040780036
:102248000080fb000080fa00000006000000fa0091
:10225800f08820008040eb00014878000080fa00f8
:10226800000006000000fa008021ef008221ef0044
:1022780060002000200c8800200c800000407800be
:10228800674060000080fb00304288000080fa0050
:10229800000006000000fa000080fa0000000600b6
:1022a8000000fa0020048000640060000000e000e4
:1022b80002003200f7ff07008440a9000080fa00fe
:1022c800000006000000fa0030428000004078005c
:1022d800674060000080fb0067006000220c8000ff
:1022e80081ff2f008100610001007000200c880030
:1022f8000080fa00000006000000fa00210c8000af
:1023080080ff2f0000806000200c88000080fa0009
:10231800000006000200fa00000f78009e00780016
:10232800010c88000080fa00000006000200fa0094
:10233800000f78009e007800110c88000080fa00d9
:10234800000006000000fa00200480004200de00c1
:10235800614060000080fb0000f0a7000000ea0078
:102368000000ea004f00de00004078000080fa001c
:10237800000006000400fa008e80e800800878005b
:102388000e80e800100078000000e0000a003a0023
:10239800200c80004400de00614060000080fb00eb
:1023a80000f0a7000000ea000000ea004f00de008d
:1023b800004f780001003700000000001e40780040
:1023c8000080fa00000006000000fa000621ef0075
:1023d800b02b2000600888000000280080088800d2
:1023e800c08820008040eb00014878000080fa0097
:1023f800000006000000fa00210480000008200008
:10240800008060000000e00009003200d088200051
:10241800104078008040e800d0882000014878000b
:10242800c088200011c0b3000148780084e0a900ea
:102438000080fa00000006000200fa00000f780091
:102448009e00780061088800c08820008040eb006a
:10245800014878000080fa00000006000000fa0039
:10246800600880000080fa00000006000200fa0000
:10247800000f78009e00780031088800c08820008e
:102488008040eb00014878000080fa000000060058
:102498000000fa00300880000080fa000000060002
:1024a8000000fa00c08820008040eb000148780056
:1024b80011e1a8000080fa00000006000000fa0000
:1024c80011e1a9000080fa00000006000200fa00ed
:1024d800c0882000104f78001e4078000004e000fb
:1024e80003003200c08820008040eb0001487800db
:1024f8001e4078000080fa00000006000000fa0084
:10250800d0882000104078000080fb000080fa008e
:10251800000006000000fa00d08820008040eb0090
:0c252800014878000080fa000000060066
:020000040000fa
:1025340046080000020000000000000048080000f7
:1025440002000000000000008a08000002000000f1
:10255400000000004a080000020000000000000023
:102564008c08000002000000000000005208000077
:1025740020000000000000004c08000002000000e1
:1025840002000000ffff00008e08000002000000af
:10259400000000004e0800000200000000000000df
:1025a4007208000018000000000000002608000067
:1025b40020000000020000006666060040dd2400e2
:1025c400463f8f00184041009a99010041cdcc004c
:1025d400cc3e0000002042000000000040008000cb
:1025e4002c44000000080000260000000000000049
:1025f400500800000200000000000000000000007d
:020000040000fa
:102604000000fa00c422ef00cc22ef007001200089
:1026140000168800d0bf2700401688006820ef000d
:102624006a20ef00c622ef00ce22ef0080202000b7
:1026340060198800113a8000f00b200000816000ce
:102644006004200071052000237420008049780074
:1026540081497800824978005136800000fe2f00bd
:10266400008060002001b30050368800713680007d
:10267400f00f2e0080806000003020000100700008
:1026840070368800103a8000000178000260a000d3
:102694006004200071052000237420008049780024
:1026a40081497800824978000080fa000000060021
:1026b4000000fa0000102300203a88004827ef00a9
:1026c4007027ef007227ef007427ef00220020002c
:1026d40080072000a109200033742000804978007d
:1026e40081497800824978000001eb0060042000f1
:1026f4007105200023742000804978008149780006
:10270400824978000080fa00000006000000fa0008
:102714004105800080ff2f00008060000000a000c1
:102724004005880021058000f0ff2800008060003b
:1027340000c0a000200588000080fa000000060008
:102744000000fa00aeff0700f0ff0700d8ff070003
:102754004cfd0700adfd070067fe0700c2fe070041
:102764001aff070008fe07000080fa0000000600b8
:102774000200fa00000f78009e0078006142880091
:10278400ffff37000000fa00208520008007780052
:10279400a0862000000188000080fa0000000600e6
:0c27a4000000fa00e6ff0700ffff37000e
:020000040000fa
:020000040001f9
:0457f8009cfa000017
:020000040000fa
:020000040001f9
:0457fc007f3d0000ed
:00000001FF
